{
  "_format": "hh-sol-artifact-1",
  "contractName": "Governance",
  "sourceName": "contracts/Governance.sol",
  "abi": [
    {
      "anonymous": false,
      "inputs": [
        {
          "indexed": false,
          "internalType": "uint256",
          "name": "id",
          "type": "uint256"
        },
        {
          "indexed": false,
          "internalType": "string",
          "name": "title",
          "type": "string"
        },
        {
          "indexed": false,
          "internalType": "address",
          "name": "creator",
          "type": "address"
        },
        {
          "indexed": false,
          "internalType": "uint256",
          "name": "timestamp",
          "type": "uint256"
        }
      ],
      "name": "ProposalCreated",
      "type": "event"
    },
    {
      "inputs": [
        {
          "internalType": "string",
          "name": "title",
          "type": "string"
        },
        {
          "internalType": "string",
          "name": "description",
          "type": "string"
        }
      ],
      "name": "createProposal",
      "outputs": [],
      "stateMutability": "nonpayable",
      "type": "function"
    },
    {
      "inputs": [],
      "name": "getProposals",
      "outputs": [
        {
          "components": [
            {
              "internalType": "string",
              "name": "title",
              "type": "string"
            },
            {
              "internalType": "string",
              "name": "description",
              "type": "string"
            },
            {
              "internalType": "address",
              "name": "creator",
              "type": "address"
            },
            {
              "internalType": "uint256",
              "name": "timestamp",
              "type": "uint256"
            }
          ],
          "internalType": "struct Governance.Proposal[]",
          "name": "",
          "type": "tuple[]"
        }
      ],
      "stateMutability": "view",
      "type": "function"
    },
    {
      "inputs": [
        {
          "internalType": "uint256",
          "name": "",
          "type": "uint256"
        }
      ],
      "name": "proposals",
      "outputs": [
        {
          "internalType": "string",
          "name": "title",
          "type": "string"
        },
        {
          "internalType": "string",
          "name": "description",
          "type": "string"
        },
        {
          "internalType": "address",
          "name": "creator",
          "type": "address"
        },
        {
          "internalType": "uint256",
          "name": "timestamp",
          "type": "uint256"
        }
      ],
      "stateMutability": "view",
      "type": "function"
    }
  ],
  "bytecode": "0x608060405234801561001057600080fd5b50610c10806100206000396000f3fe608060405234801561001057600080fd5b50600436106100415760003560e01c8063013cf08b1461004657806362564c481461007957806365e481e214610097575b600080fd5b610060600480360381019061005b9190610750565b6100b3565b6040516100709493929190610969565b60405180910390f35b610081610223565b60405161008e9190610947565b60405180910390f35b6100b160048036038101906100ac91906106db565b610406565b005b600081815481106100c357600080fd5b90600052602060002090600402016000915090508060000180546100e690610b22565b80601f016020809104026020016040519081016040528092919081815260200182805461011290610b22565b801561015f5780601f106101345761010080835404028352916020019161015f565b820191906000526020600020905b81548152906001019060200180831161014257829003601f168201915b50505050509080600101805461017490610b22565b80601f01602080910402602001604051908101604052809291908181526020018280546101a090610b22565b80156101ed5780601f106101c2576101008083540402835291602001916101ed565b820191906000526020600020905b8154815290600101906020018083116101d057829003601f168201915b5050505050908060020160009054906101000a900473ffffffffffffffffffffffffffffffffffffffff16908060030154905084565b60606000805480602002602001604051908101604052809291908181526020016000905b828210156103fd578382906000526020600020906004020160405180608001604052908160008201805461027a90610b22565b80601f01602080910402602001604051908101604052809291908181526020018280546102a690610b22565b80156102f35780601f106102c8576101008083540402835291602001916102f3565b820191906000526020600020905b8154815290600101906020018083116102d657829003601f168201915b5050505050815260200160018201805461030c90610b22565b80601f016020809104026020016040519081016040528092919081815260200182805461033890610b22565b80156103855780601f1061035a57610100808354040283529160200191610385565b820191906000526020600020905b81548152906001019060200180831161036857829003601f168201915b505050505081526020016002820160009054906101000a900473ffffffffffffffffffffffffffffffffffffffff1673ffffffffffffffffffffffffffffffffffffffff1673ffffffffffffffffffffffffffffffffffffffff16815260200160038201548152505081526020019060010190610247565b50505050905090565b6000604051806080016040528086868080601f016020809104026020016040519081016040528093929190818152602001838380828437600081840152601f19601f82011690508083019250505050505050815260200184848080601f016020809104026020016040519081016040528093929190818152602001838380828437600081840152601f19601f8201169050808301925050505050505081526020013373ffffffffffffffffffffffffffffffffffffffff168152602001428152509080600181540180825580915050600190039060005260206000209060040201600090919091909150600082015181600001908051906020019061050c9291906105d9565b5060208201518160010190805190602001906105299291906105d9565b5060408201518160020160006101000a81548173ffffffffffffffffffffffffffffffffffffffff021916908373ffffffffffffffffffffffffffffffffffffffff160217905550606082015181600301555050600060016000805490506105919190610a70565b90507f9cc3d9dd626042cdefb76484b91708c3207b637214b44f20111c893548d9c85f81868633426040516105ca9594939291906109bc565b60405180910390a15050505050565b8280546105e590610b22565b90600052602060002090601f016020900481019282610607576000855561064e565b82601f1061062057805160ff191683800117855561064e565b8280016001018555821561064e579182015b8281111561064d578251825591602001919060010190610632565b5b50905061065b919061065f565b5090565b5b80821115610678576000816000905550600101610660565b5090565b60008083601f84011261068e57600080fd5b8235905067ffffffffffffffff8111156106a757600080fd5b6020830191508360018202830111156106bf57600080fd5b9250929050565b6000813590506106d581610bc3565b92915050565b600080600080604085870312156106f157600080fd5b600085013567ffffffffffffffff81111561070b57600080fd5b6107178782880161067c565b9450945050602085013567ffffffffffffffff81111561073657600080fd5b6107428782880161067c565b925092505092959194509250565b60006020828403121561076257600080fd5b6000610770848285016106c6565b91505092915050565b600061078583836108bf565b905092915050565b61079681610aa4565b82525050565b6107a581610aa4565b82525050565b60006107b682610a1a565b6107c08185610a3d565b9350836020820285016107d285610a0a565b8060005b8581101561080e57848403895281516107ef8582610779565b94506107fa83610a30565b925060208a019950506001810190506107d6565b50829750879550505050505092915050565b600061082c8385610a5f565b9350610839838584610ae0565b61084283610bb2565b840190509392505050565b600061085882610a25565b6108628185610a4e565b9350610872818560208601610aef565b61087b81610bb2565b840191505092915050565b600061089182610a25565b61089b8185610a5f565b93506108ab818560208601610aef565b6108b481610bb2565b840191505092915050565b600060808301600083015184820360008601526108dc828261084d565b915050602083015184820360208601526108f6828261084d565b915050604083015161090b604086018261078d565b50606083015161091e6060860182610929565b508091505092915050565b61093281610ad6565b82525050565b61094181610ad6565b82525050565b6000602082019050818103600083015261096181846107ab565b905092915050565b600060808201905081810360008301526109838187610886565b905081810360208301526109978186610886565b90506109a6604083018561079c565b6109b36060830184610938565b95945050505050565b60006080820190506109d16000830188610938565b81810360208301526109e4818688610820565b90506109f3604083018561079c565b610a006060830184610938565b9695505050505050565b6000819050602082019050919050565b600081519050919050565b600081519050919050565b6000602082019050919050565b600082825260208201905092915050565b600082825260208201905092915050565b600082825260208201905092915050565b6000610a7b82610ad6565b9150610a8683610ad6565b925082821015610a9957610a98610b54565b5b828203905092915050565b6000610aaf82610ab6565b9050919050565b600073ffffffffffffffffffffffffffffffffffffffff82169050919050565b6000819050919050565b82818337600083830152505050565b60005b83811015610b0d578082015181840152602081019050610af2565b83811115610b1c576000848401525b50505050565b60006002820490506001821680610b3a57607f821691505b60208210811415610b4e57610b4d610b83565b5b50919050565b7f4e487b7100000000000000000000000000000000000000000000000000000000600052601160045260246000fd5b7f4e487b7100000000000000000000000000000000000000000000000000000000600052602260045260246000fd5b6000601f19601f8301169050919050565b610bcc81610ad6565b8114610bd757600080fd5b5056fea2646970667358221220250e3faea5cabfcb457969db95ba7479208096e2d502ef0c6918fc4887760ffe64736f6c63430008000033",
  "linkReferences": {},
  "deployedLinkReferences": {}
}